:020000040800F2
:10000000B85D002001030008411100083D110008FF
:100010003F110008D10F0008A117000800000000E0
:10002000000000000000000000000000490200087D
:10003000E90F0008000000009D02000815140008E8
:100040001B0300081B0300081B0300081B03000818
:100050001B0300081B0300081B0300081B03000808
:100060001B0300081B0300081B0300081B030008F8
:100070001B0300081B0300081B0300081B030008E8
:100080001B0300081B0300081B0300081B030008D8
:100090001B0300081B0300081B0300081B030008C8
:1000A0001B0300081B0300081B0300081B030008B8
:1000B0001B030008851400081B0300081B0300082D
:1000C0001B0300081B0300081B0300081B03000898
:1000D0001B030008D5150008391600081B0300088B
:1000E0001B0300081B0300081B0300081B03000878
:1000F0001B0300081B0300081B0300081B03000868
:100100001B0300081B0300081B0300081B03000857
:100110001B0300081B0300081B0300081B03000847
:100120001B0300081B0300081B0300081B03000837
:100130001B0300081B0300081B0300081B03000827
:100140001B0300081B0300081B0300081B03000817
:100150001B0300081B0300081B0300081B03000807
:100160001B0300081B0300081B0300081B030008F7
:100170001B0300081B0300081B0300081B030008E7
:100180001B0300081B03000800F002F800F04CF805
:100190000AA090E8000C82448344AAF10107DA45E2
:1001A00001D100F041F8AFF2090EBAE80F0013F0E8
:1001B000010F18BFFB1A43F001031847DC3500009C
:1001C000FC350000103A24BF78C878C1FAD852072D
:1001D00024BF30C830C144BF04680C6070470000C1
:1001E0000023002400250026103A28BF78C1FBD840
:1001F000520728BF30C148BF0B607047642900F028
:100200000981732900F03482002070471FB503F084
:10021000B7FA9DE8030000F0CDFC00F097FA1FBD8F
:1002200010B500F0FCFA10BD00F086FB1146FFF798
:10023000EDFF01F039FB00F08BFC03B4FFF7F0FF9A
:1002400003BC00F029FE00002A4B19680868B0E8DA
:10025000F04F80F30988BFF36F8F4FF0000080F3F9
:10026000118870470000000006480068006880F3AD
:10027000088862B661B6BFF34F8FBFF36F8F00DFA0
:1002800000BF00BF08ED00E0DFF80C00016841F49A
:1002900070010160704700BF88ED00E0EFF3098056
:1002A000BFF36F8F134B1A681EF0100F08BF20EDBD
:1002B000108A20E9F04F106008B44FF0500080F32E
:1002C0001188BFF34F8FBFF36F8F02F017FC4FF011
:1002D000000080F3118808BC19680868B0E8F04F86
:1002E0001EF0100F08BFB0EC108A80F30988BFF32E
:1002F0006F8F70474C000020EFF3058070470000BF
:100300000948804709480047FEE7FEE7FEE7FEE7A9
:10031000FEE7FEE7FEE7FEE7FEE7FEE704480549E5
:10032000054A064B7047000029140008890100089F
:10033000B8570020B85D0020B8590020B8590020F7
:100340000FB4044910B503AA029800F095F910BC47
:100350005DF814FBAC5600202DE9F0410E46044632
:10036000002020622046E168884730B3252805D068
:10037000D4E901219047206A401CF2E7E168204659
:1003800000278847050018D0A5F14100192802D898
:1003900020354FF400673246294620462760FFF794
:1003A0002DFF40B1012804D0F61D26F007060836BF
:1003B000D8E7361DD6E72846DAE7206ABDE8F0819F
:1003C00070B50C460546012A05D02878800600D570
:1003D000EA69002302E0012305E05B1C934202D29C
:1003E000E05C0028F9D1A869E618C01AA861286A5B
:1003F000184428622846AFF3008004E0D5E90121C3
:1004000014F8010B9047B442F8D32846AFF30080AC
:1004100070BD00002DE9F0410646002410687529E2
:10042000314616A510D0AFF30080002802DA404212
:1004300013A507E031688A0701D512A502E0490734
:1004400004D511A5012401E0AFF3008000210A22A8
:1004500006F1240709E0B0FBF2FCB0FBF2F302FB6B
:100460001C00303078541846491C0028F3D123462C
:100470002A463046BDE8F04100F077B800000000A1
:100480002D0000002B0000002000000010B5431CD0
:1004900002E010F8011B71B18107FAD14FF001326F
:1004A00002C88C1A8C4314EAC211F9D0C01A0A0689
:1004B00003D0C01E10BDC01A10BD0A0401D0801E9A
:1004C00010BD0902FCD0401E10BD032A40F230804E
:1004D00010F0030C00F0158011F8013BBCF1020F85
:1004E000624498BF11F801CB00F8013B38BF11F806
:1004F000013BA2F1040298BF00F801CB38BF00F81D
:10050000013B11F0030300F0C980083AC0F00880F5
:1005100051F8043B083A51F804CBA0E80810F5E77D
:10052000121D5CBF51F8043B40F8043BAFF3008060
:10053000D20724BF11F8013B11F801CB48BF11F8D5
:10054000012B24BF00F8013B00F801CB48BF00F8A5
:10055000012B704702F0FF0343EA032242EA024202
:1005600000F0D0B87047704770472DE9F0470D464E
:1005700099469246044600F124080168880604D58D
:10058000E06921F01001216000E00120A84201DDB6
:10059000471B00E00027A1697A1902EB0900081A3D
:1005A000A0612078C00602D42046AFF30080002668
:1005B00008E0D4E901211AF806009047206A401C9F
:1005C000761C20624E45F4DB2078C0060AD5204612
:1005D000AFF3008006E0D4E9012130209047206A83
:1005E000401C2062381EA7F10107F4DC07E0D4E9C3
:1005F000012118F805009047206A401C2062281E3F
:10060000A5F10105F3DC2046AFF300802078000659
:1006100002D50220BDE8F0870120FBE701694A1CF2
:1006200002610878704700B58FB0CDE90131002133
:10063000059105497944CDE9031011466846FFF755
:100640008BFE0FB000BD0000E5FFFFFF10B5436952
:1006500013B1AFF3008001E0FFF7B2FE012010BD3F
:10066000127800F124010A7000224A700122EDE79D
:1006700011684FF0FF32E9E7074B70B50D467B4438
:10068000FFF7D1FF0446284600F05CF810B14FF0A8
:10069000FF3070BD204670BD1312000010B5203A27
:1006A000C0F00B80B1E81850203AA0E81850B1E82B
:1006B0001850A0E81850BFF4F5AF5FEA027C24BFE1
:1006C000B1E81850A0E8185044BF18C918C0BDE8D8
:1006D00010405FEA827C24BF51F8043B40F8043BA1
:1006E00008BF7047D20728BF31F8023B48BF11F856
:1006F000012B28BF20F8023B48BF00F8012B7047B0
:100700004FF000020429C0F0128010F0030C00F03A
:10071000BB80CCF1040CBCF1020F18BF00F8012B18
:10072000A8BF20F8022BA1EB0C0100F0ADB85FEAE6
:10073000C17C24BF00F8012B00F8012B48BF00F852
:10074000012B7047007B00F08000704710B54248D5
:10075000542100F097F84148542100F093F84048A4
:10076000542100F08FF83F493B483C4A3F4B08601A
:100770003D490A603A491960531C0365481C1065DD
:10078000012008653B48344A39A1784400F044F917
:1007900020B9384878440A3800F0E3F937482F4A3E
:1007A00035A1784400F038F920B9344878440A3843
:1007B00000F0D7F932482A4A2FA1784400F02CF9EA
:1007C00020B92F4878440A3800F0CBF9402322485A
:1007D000DC000021224600F0FBF820B125487844D7
:1007E000543800F0BEF91D4822464023002100F095
:1007F000EFF820B121487844543800F0B2F9184895
:1008000022461023002100F0E3F8002806D01C48FF
:100810007844BDE81040563800F0A3B910BD104828
:1008200070B5006D20F001040B4800F06BF90B4827
:1008300000F068F90A4800F065F909E0206D20F041
:100840000105204600F05EF9204600F09AF82C469B
:10085000002CF3D170BD000058560020AC5600208B
:1008600000570020C8000020CC000020D00000204D
:1008700072000000FC2F000077000000E82F00004D
:10088000D42F00004FF0000200B513469446964660
:10089000203922BFA0E80C50A0E80C50B1F1200193
:1008A000BFF4F7AF090728BFA0E80C5048BF0CC041
:1008B0005DF804EB890028BF40F8042B08BF70479F
:1008C00048BF20F8022B11F0804F18BF00F8012B11
:1008D00070470EB5CDE90001FFF7D8FD02906946DB
:1008E0000120ABBE0EBD08B5694600900220ABBE2C
:1008F00008BD1FB58DE8070069460520ABBE04B0F2
:1009000010BD1FB58DE80F0069460620ABBEF6E7A7
:1009100008B5694600900920ABBE08BD1CB5CDE9FD
:10092000000169460A20ABBE1CBD704708B5694688
:1009300000900C20ABBE08BD754600F019F9AE461C
:1009400005006946534620F00700854618B020B5DB
:10095000FFF7E4FCBDE820404FF000064FF0000731
:100960004FF000084FF0000B21F00701AC46ACE857
:10097000C009ACE8C009ACE8C009ACE8C0098D46C4
:10098000704770B50446051F00F0F8F80068002CA9
:1009900014BF446870BD002C18BFAC423CBF204659
:1009A0006468F8D301680A18AA4218BF456003D1E9
:1009B0002A6805461144016028684119A1421CBFFC
:1009C0006C6070BD6168696021680844286070BD12
:1009D00070B5C468A50713D0650211D4B2F5807F45
:1009E00009D0B2F5007F06D0B2F5806F08D101239F
:1009F00000F1240106E05D1E6FF07F46B54201D391
:100A0000012070BD0161C361416024F47061114334
:100A1000C160002070BD00002DE9F0410C46074682
:100A20001646104600F06EF82078611C61280AD046
:100A3000722802D077283CD102E00125002405E08D
:100A40000225042402E0082448F2020511F8010BF3
:100A50002B2806D0622809D011F8010C74280AD07E
:100A60000BE045F0030544F00204EFE745F0040510
:100A700044F00104EAE744F0100438462146FFF749
:100A800028FF411C15D00021316171604FF40071C5
:100A9000F560F1617061200704D530460222002123
:100AA00000F0E6F8306D40F0010030653046BDE8FA
:100AB000F0810020FBE72DE9F0410D460646104C81
:100AC000206DC10704D0410804D020F00104F7E7ED
:100AD00022460EE0542000F09CF807000ED0206D56
:100AE00047F001010843542120653846FFF7CAFE4C
:100AF0003A4629463046BDE8F0418DE70020D6E76A
:100B0000585600202DE9F04704464FF000094FF0F9
:100B1000FF37C568D4E90486A80707D0204600F04F
:100B200057F93046FFF7DFFE002802DA3846BDE805
:100B3000F087280502D54046FFF723FF4C212046C9
:100B4000FFF7A0FE206D20F0010020654846EEE78B
:100B500010B50446AFF300802046BDE81040FFF713
:100B60006CBB10B500F07EF9BDE8104000F074B920
:100B700000487047545700207047000000487047F5
:100B80005C570020704770477047704738B504467F
:100B90000A4600206946AFF30080002808BF38BD30
:100BA00002460099204600F084F9012038BD01205A
:100BB00000F0D3B9F8B5AFF30080054600200C462D
:100BC000102000BF0646A819A0420DD9324669463A
:100BD0000020AFF30080070008BF00F0BEF90098C6
:100BE000A04218BF0546C419FFF7C8FF05600746B5
:100BF000F01D20F007004619284600F053F9B442D2
:100C000008BFF8BDA21B31463868BDE8F84000F0C7
:100C100050B970B50646FFF7B1FF056806F10B0045
:100C200020F00704B4429CBF002070BD2B466A68C8
:100C3000BAB11068A04210D304F1080188423CBF49
:100C40005068586007D35168101941601168091B3A
:100C5000016058601460101D70BD13465268002A70
:100C6000E7D121462846FFF791FF0028DED170BD6D
:100C70002DE9F041044616460D464769007B800782
:100C80002ED03846FFF744FE50BB3EB3012E02D0B3
:100C9000022E25D104E0204600F025F905441DE090
:100CA0003846FFF743FEE168002841F01001E1609B
:100CB00005DA204600F058F80120BDE8F081C903AC
:100CC0000BD56268E16A914200D81146A2691144CD
:100CD0002269891A814200DD08460544002D01DAA7
:100CE0000220EAE7E16A6068E268814206D2910385
:100CF000E06203D522F4003141F01002A66900271A
:100D0000AE4213DCE16A814201D90B4600E00346A2
:100D100003EB060C2369ACEB030CAC4506DD81420A
:100D200001D98C4600E084469C4505D1A760276028
:100D300042F02000A5620DE0AD1BE669AE1B8142CA
:100D4000A66000D90846C01A281A206058196060A9
:100D500022F0200003490840E060002084F8487039
:100D6000ABE70000BFCFD7FFC16821F4001141F00D
:100D70008001C16000218160016070472DE9F0476A
:100D8000814614460E464FF0FF383248D568576901
:100D9000054209D03846A169FFF7C0FD002811DBE4
:100DA0002C48C0430540E5602B463246494638464C
:100DB000FFF79FFDA16920F00042B21A11440028FC
:100DC000A16103D02046FFF7CFFF4046BDE8F08782
:100DD00070B504460569C06A6168884200D8084653
:100DE000E16821F42011E160C90312D5A84208D0BE
:100DF0002246411B2846FFF7C1FF10B14FF0FF30DC
:100E000070BD0020E562C4E90150E06820F4803044
:100E1000E060002070BD10B50446C06820F02000DE
:100E2000E060A16AA06988420DD02046FFF7D0FF9C
:100E3000E06820F4405040F01000E060A06AA0613B
:100E40002069E062606044F24001E0688843E0604D
:100E500010BD000010000200002801D000F01CB8F6
:100E60007047000010B5014602A000F05DF80120B7
:100E700010BD000053494752545245443A20526530
:100E80006469726563743A2063616E2774206F70C1
:100E9000656E3A200000000001491820ABBEFEE755
:100EA0002600020000210160C0E9011070471020F7
:100EB0007047034640688C46002818BF88423CBFF4
:100EC00003464068F8D318681844884207D00CF1EC
:100ED000030020F00700001D411A521A0146081DA8
:100EE0000A60FFF74EBD10B50146C268900703D0F7
:100EF000900607D5886A0AE000F03EF801210160FB
:100F0000881E10BD8B69486818440B69C01A91F897
:100F100048301BB191F84910401A10BD1103FCD59F
:100F20000028FADD401E10BD70B505460C460A20AB
:100F300000E06D1C00F018F835B128780028F8D1D1
:100F400002E0641C00F010F814B120780028F8D1F9
:100F5000BDE870400A2000F007B810B500F010F8A6
:100F6000BDE81040FFF778BF08B569468DF800006E
:100F70000320ABBE08BD0000004870475457002056
:100F800010B5012805D0002103A0FFF7CDFF0120F7
:100F900010BD09A1F8E7000053494752544D454D93
:100FA0003A204F7574206F662068656170206D650A
:100FB0006D6F7279000000003A2048656170206D05
:100FC000656D6F727920636F7272757074656400FD
:100FD000FEE70000034800220260426053213120F6
:100FE00000F06ABA28000020704700002DE9F041A7
:100FF0008046012188B0084600F03AF901214804F2
:1010000000F042F902208DF814008DF8150000243C
:10101000224F0C258DF81640012604958DF8176097
:1010200004A9384600F03EF807220221384600F0B5
:1010300075F807220321384600F070F8ADF8084033
:10104000ADF80A50164DADF80440CDF80080ADF86B
:101050000640ADF80C406946284600F047FB0121E8
:10106000284600F0FBFA01222821284600F026FB42
:10107000012240F22551284600F020FB26208DF861
:10108000180005208DF819008DF81A408DF81B60A6
:1010900006A800F057F808B0BDE8F0810000024053
:1010A00000440040F0B5002201274FF0030C0B680C
:1010B00007FA02F52B40AB422CD1066853000CFA1C
:1010C00003F4A64306600E79D0F800E09E4046EA9D
:1010D0000E0606600E79012E01D0022E12D186680E
:1010E000A64386604E79D0F808E09E4046EA0E0698
:1010F00086604668AE43466045688E799640B6B2D3
:1011000035434560C568A543C560CC799C40C3683C
:101110001C43C460521C102AC9D3F0BD4B07DB0E20
:101120009A40C90810B500EB8100016A0F249C4069
:10113000A1430162016A1143016210BDFEE7FEE7AF
:101140007047000030B50F23C27801780125FAB14D
:10115000144A126801F1E02102F4E062C2F5E06293
:10116000C2F30722C2F10404D3404278A24084783B
:101170001C401443220181F80024007800F01F0174
:101180008D404009800000F1E020C0F8005130BDE2
:1011900001F01F0085404809800000F1E020C0F800
:1011A000805130BD0CED00E002490843024908605F
:1011B000704700000000FA050CED00E070B5017901
:1011C0004379827903EB012100258CB2012A04D0F6
:1011D000022A04D0042A0BD019E0C17914E0C279A4
:1011E000007A62F30F2160F307018DB229460BE00C
:1011F000C27962F31F61027A62F31741427A807A00
:1012000062F30F2160F3070111A0FFF799F8B4F51D
:10121000A04F0BD004F6FA74B4F5C04F16D129468E
:10122000BDE8704045F2040001F0B6BC0CA0FFF729
:1012300087F80E4C45F20200217819B101F0ADFC9F
:10124000002002E001F0A9FC0120207070BD000028
:101250007265637620646174612025640D0A000064
:1012600072656376206F7665720D0A003200002089
:10127000044A0029116801D0014300E08143116054
:101280007047000030380240044A0029116801D03C
:10129000014300E081431160704700004038024084
:1012A000044A0029116801D0014300E08143116024
:1012B000704700004438024070B5204B1968204C3C
:1012C00011F00C0104D06610042903D0082903D0C2
:1012D00004601BE0066019E0184A121F1168C1F390
:1012E0008055116801F03F0115B1B6FBF1F101E045
:1012F000B4FBF1F114681268C4F388146143C2F3BB
:101300000142521C5200B1FBF2F1016019680F2238
:1013100002EA11110B4A545C0168E14041601C680B
:10132000072505EA9424145D21FA04F484601B68FF
:1013300005EA5333D25CD140C16070BD0838024029
:101340000024F4003A0000200CB500222749009246
:101350000192086840F4803008604FF4A0430868A8
:1013600000F4003001900098401C0090019810B9E2
:1013700000989842F3D10868800334D50120019089
:101380001A484030026842F08052026018480268F1
:1013900042F4404202601548083002680260026868
:1013A00042F400420260026842F4A0520260031F4D
:1013B000104A1A600A6842F080720A600A68920154
:1013C000FCD50D4940F205720A60016821F0030165
:1013D0000160016841F0020101600168C1F381010F
:1013E0000229FAD10CBD01920CBD00000038024068
:1013F0000070004008544007003C02404FF0E021DC
:101400000428086903D020F004000861704740F008
:101410000400FAE710B501F057FF012803D0BDE83A
:10142000104001F045BC10BD124810B5016841F4F0
:10143000700101601048016841F0010101600E4A2D
:1014400000210832116002680C4B1A400260031D33
:101450000B4A1A60026822F48022026006480C30AF
:101460000160FFF771FF03494FF0006080390860A9
:1014700010BD000088ED00E000380240FFFFF6FEDE
:101480001030002410B50A4C0121204600F04FF81E
:10149000012807D107490A684868521C40F100003A
:1014A0000A6048602046BDE81040012100F032B8D3
:1014B00000040040280000207FB50D4604460121AD
:1014C0000220FFF7E1FE0194ADF800500024104D1A
:1014D000ADF80240ADF808406946284600F03CF8F7
:1014E00001221146284600F02EF80121284600F07E
:1014F00014F81D208DF80C0001208DF80D008DF8DA
:101500000E408DF80F0003A8FFF71CFE7FBD000002
:1015100000040040C943018270470029018802D0BD
:1015200041F0010101E021F0010101807047024614
:101530000020138A92890B4202EA010202D0002A9B
:1015400000D001207047002A828901D00A4300E0C0
:101550008A4382817047000030B50288164C174DCF
:10156000A0420DD0A8420BD0B0F1804F08D0144B50
:10157000984205D0134B984202D0134B984203D1A6
:1015800022F070034A881A43104B984206D0104B41
:10159000984203D022F440730A891A4302804A68B1
:1015A000C2620A880285A04201D0A84201D1897A8C
:1015B00001860121818230BD00000140000401400C
:1015C0000004004000080040000C004000100040F3
:1015D0000014004070B5154C40F22551204600F033
:1015E0004EF800280ED0204600F0D6F8104AC1B2BE
:1015F0001088030406D444044FF0000306D50A29DA
:1016000001D0138070BD40F400400DE00D2909D0D9
:10161000C0F30D04074D401C80B2295510803128BD
:10162000EFD870BD40F48040108070BD00100140C4
:1016300038000020D802002010B5074C2021204699
:1016400000F016F80028F9D0204600F0A5F8BDE813
:101650001040C0B200F06CBE0044004000298189F7
:1016600002D041F4005101E021F400518181704722
:101670000246002012880A4200D00120704770B54F
:1016800001F01F0501260024C1F3421306FA05F2FA
:10169000012B0FD0022B0FD0838A4FEA1121008833
:1016A000134206FA01F600EA060001D000B1012457
:1016B000204670BD8389F0E7038AEEE710B5C1F3D9
:1016C000421301F01F040121A140012B07D0022B7E
:1016D00007D01430002A026805D00A4304E00C3019
:1016E000F8E71030F6E78A43026010BD7FB5044684
:1016F000008A0D46C98820F4405001432182A08908
:1017000041F20C618843A9882A8911436A890243FE
:101710001143A181A08A20F44071A8890843A082C6
:101720006846FFF7C9FD1A48844202D0194884422E
:1017300001D1039800E00298A189090400EBC001DF
:1017400001EB0010296801D5490000E08900B0FBD9
:10175000F1F06422B0FBF2F109010B096FF01805FA
:101760006B4300EB8300A3891D044FF0320306D5C1
:1017700003EBC000B0FBF2F000F0070005E003EB64
:101780000010B0FBF2F000F00F00084320817FBD95
:1017900000100140001401408088C0F30800704729
:1017A000FEE70000084D642445F206062968B1FBF7
:1017B000F4F004FB101010B9304600F0D5FD0A20FB
:1017C00000F0E8FFF2E700000000002010B504463A
:1017D0000420FFF713FE0A484FF47A71047014FBDB
:1017E00001F1012242804FF0E020026942F0020242
:1017F00002614161016941F00101016110BD000018
:101800003400002070B5044601F05EFD01280CD0C4
:10181000094D6888844203D3B4FBF0F000F0BAFFAE
:101820006888B4FBF0F100FB11444FF47A70604318
:10183000BDE8704000F002B83400002070B54FF0F1
:10184000E02500216C69094AAB6912785043AA6906
:101850009A42FCD002D2A3EB020302E0A4EB020600
:101860003344194413468142F1D370BD3400002043
:101870001FB51021684600F023FD002802D06846FD
:10188000FFF79CFC1FBDFFF7F3FF142000F082FF61
:10189000F9E7000003490A885206FCD5C2B28A80E3
:1018A00070470000001001401CB54FF44070FFF776
:1018B0007BFCA820FFF78AFF4FF4E134204600F0BC
:1018C00089FD2046FFF792FB00F042FD4FF4967031
:1018D000FFF798FF06490120CDE90001020200232D
:1018E00004A1074801F0C4FC01F0B4F800201CBDBD
:1018F0000400002073746172745F7461736B000084
:101900006D2300082DE9F041184E0F460446F56896
:101910003068001D00F0B4FD38B9306890F82C1024
:1019200001208840316981433161601C07D137B1A2
:101930003168BDE8F0410E48091D00F0D9BD30689E
:101940002C44AC424460316805D2306CBDE8F041B3
:10195000091D00F0B5BDF06B091D00F0B1FDB06AC6
:10196000844200D2B462BDE8F08100004C00002047
:101970001C0600202DE9F041054600F0C5FD2D4E66
:10198000B068401CB06030682B4F10B1706930B344
:101990002BE03560B068012827D1002404EB8400D7
:1019A00007EB800000F07EFD641C202CF6D323485A
:1019B00000F078FD2148143000F074FD1F482830F5
:1019C00000F070FD1D483C3000F06CFD1B485030AD
:1019D00000F068FD1948F0631430306405E03068A9
:1019E000E96AC06A884200D83560706A0121401CEB
:1019F0007062A864E86A326981401143316100EB8A
:101A0000800007EB8000291D00F072FD00F0B8FD9A
:101A1000706900280CD03068E96AC06A884207D231
:101A200007494FF080500860BFF34F8FBFF36F8FAF
:101A3000BDE8F0814C0000204C030020CC050020C4
:101A400004ED00E010B500F05FFD0E4C2068A0B979
:101A50000D4800F027FD0C48143000F023FD0A4823
:101A6000E0601430206100221021052001F036F9D9
:101A7000206010B105A100F059FEBDE8104000F053
:101A80007FBD00009000002030060020546D725190
:101A90000000000070B5124E124D1CE001F026F857
:101AA000306820B1002401F03DFDA4B901E001241B
:101AB000F9E700F029FDF068C468201D00F0E0FCA3
:101AC000A868401EA8606868401E686000F058FD65
:101AD000204600F052F868680028DFD170BD000091
:101AE000080600204C00002030B4026C0B46002A8F
:101AF0000BD0C1681144C1604468A14201D30168A0
:101B0000C16030BC1846FEF7E0BC30BC70472DE920
:101B1000F041856B174604460026026C82B1C7B1BE
:101B2000E068FEF7D2FCE168206C091AE1602268E7
:101B3000914202D26168081AE060022F16D017E0C5
:101B40002068A8B9606801F047FC06460020606084
:101B50000EE0A068FEF7B9FC216CA0680844A06004
:101B60006168884204D32068A06001E005B16D1E61
:101B70006D1CA5633046BDE8F08110B50446006BCE
:101B800000F030FD2046BDE8104000F02BBD000005
:101B900010484FF4A041420706D0C01D0D4920F067
:101BA0000700411AC1F5A0410B4A00230144C2E9D4
:101BB00000030839103A21F0070111604B600B60F7
:101BC0000B1AC0E9001393604FF000405360D060DF
:101BD0007047000058060020C0000020074E4FF05C
:101BE0008054074DFFF756FF30680128FAD92C6062
:101BF000BFF34F8FBFF36F8FF4E700004C0300205B
:101C000004ED00E02DE9F047DDE909840E461746B2
:101C1000824691009946089DA522206BFEF79AFC0A
:101C20006FF00301206B01EB8701084420F00707E8
:101C3000780705D040F22B3219A11EA0FEF780FBD9
:101C400000202218315C82F83410315C11B1401C44
:101C50001428F6D3002684F84760202D00D31F25D2
:101C6000E562C4E91456201D00F027FC04F11800B9
:101C700000F023FC2461C5F120006462A061A66528
:101C8000E66584F860604A465146384600F002FB3B
:101C90002060B8F1000F01D0C8F80040BDE8F0871F
:101CA0002E2E5C4672656552544F535C7461736BA3
:101CB000732E63004572726F723A25732C25640D82
:101CC0000A00000030B5114900E011460A6882425E
:101CD000FBD34B685C18844203D1406818444860C9
:101CE000084643681C18944209D1084C103C2468EB
:101CF000A24209D052681A4442600A68126802601F
:101D0000814200D0086030BD0460F9E7C0000020C7
:101D100070B5002441600B4D0061914206D8D11A84
:101D20008269914206D2011D286907E09A4203D2D6
:101D3000994201D3012403E0011DE86800F0C0FBD3
:101D4000204670BD9000002010B5044600F0DCFB7A
:101D5000A06B20B1002400F013FC204610BD01242C
:101D6000F9E700002DE9F34100980F460026846C46
:101D70002CB940F6CE1216A11AA0FEF7E1FAA06B1C
:101D8000E16B884205D340F6CF1211A115A0FEF7F2
:101D9000D7FAA06BE16B88420CD294F945503A46D1
:101DA00069462046FFF7B3FE0646681C05D06D1C49
:101DB00084F845503046BDE8FC81606A0028F9D0BF
:101DC00004F1240001F062FB0028F3D00126F1E7C2
:101DD0002E2E5C4672656552544F535C7175657565
:101DE000652E63004572726F723A25732C25640D5F
:101DF0000A000000F8B5054614480E46C068C068E1
:101E0000C468201D00F03CFBE069012817D1A069DF
:101E10002B46411932462046FFF77AFF78B1002061
:101E20000346014600902A46204601F061FC30B985
:101E300007494FF4027201F11800FEF781FA616A56
:101E400001B02046BDE8F0400847000090000020A7
:101E50005436000870B586B02F4E53E00198002824
:101E600006DADDE90301029A90470198002849DB70
:101E7000039C606910B1201D00F002FB05A800F072
:101E8000A7F8054601980A283CD2DFE800F00505CE
:101E9000053B273805053B270298A1690346014405
:101EA0002A462046FFF734FF00282BD0616A2046DF
:101EB0008847E069012825D1002000900298A16997
:101EC000002342181946204601F012FCD0B940F216
:101ED000213212A117A0FEF733FA13E00298A06195
:101EE00028B94FF44E720DA112A0FEF729FAA0698D
:101EF0002B4641191A462046FFF70AFF02E020460A
:101F000000F070FB00231A4601A9306800F022FFA0
:101F10000028A3D106B070BD900000202E2E5C4694
:101F200072656552544F535C74696D6572732E63AC
:101F3000000000004572726F723A25732C25640D03
:101F40000A000000F8B50D46064600F0CFFD6846D1
:101F500000F03EF80446009810B101F0E3FAF8BD35
:101F60001148ADB101690968D9B10025311B2A4674
:101F7000006800F0EDFB01F0D5FA0028EFD10B4925
:101F80004FF080500860BFF34F8FBFF36F8FF8BDE5
:101F9000A642EBD801F0C6FA21463046FFF72AFFE9
:101FA000F8BD0125E2E700009000002004ED00E00C
:101FB0000648C16B096829B1C16BC968C96849681D
:101FC000816270474FF0FF31FAE700004C000020BB
:101FD00070B5054601F086F9064E0446B0688442A5
:101FE00003D200F009F8012000E00020286020461C
:101FF000B46070BD90000020F8B5184E26E0C068AF
:10200000C4680568201D00F03BFA616A20468847D5
:10201000E06901281AD1A0692844A84206D92461A0
:102020006060211DF06800F04BFA0FE000200346CD
:10203000014600902A46204601F05AFB30B9084973
:1020400040F2923201F11800FEF77AF9F068016867
:102050000029D4D13169C6E90310F8BD90000020F1
:102060005436000808484068401C05D040F20F1262
:1020700006A111A0FEF764F9502080F31188BFF388
:102080004F8FBFF36F8FFEE7A40000202E2E5C461B
:1020900072656552544F535C706F727461626C6507
:1020A0005C525644535C41524D5F434D34465C7024
:1020B0006F72742E630000004572726F723A25735E
:1020C0002C25640D0A000000084CE068016839B155
:1020D000002139B10020FFF735FFFFF7BBFEF4E721
:1020E0000121F6E7C0680068F5E7000090000020D5
:1020F0002DE9F041044600F007FA94F9455004F147
:10210000240610E0A06C20B100212046FFF72AFE33
:1021100004E0606A48B1304601F0B8F908B100F057
:10212000D5FB6D1E6DB2002DECDC4FF0FF3684F850
:10213000456000F025FA00F0E7F994F9445004F105
:10214000100709E0206948B1384601F09FF908B14D
:1021500000F0BCFB6D1E6DB2002DF3DC84F8446012
:10216000BDE8F04100F00CBA2DE9F041054600262B
:1021700000F0BCFC324F386808B9FFF709FDF86879
:1021800005424FD1002D4DD0083568070BD005F022
:102190000700C0F108000544680704D0BF2229A148
:1021A00032A0FEF7CDF8002D3CD07868854239D8B2
:1021B000234910310846046801E02146044660685E
:1021C000A84202D220680028F7D13868B846844275
:1021D00028D00E682068086060680836401B102808
:1021E0000ED96719780704D0EC2216A11FA0FEF7BC
:1021F000A7F86068401B786038466560FFF762FDAD
:102200006168D8F804004246401AC8F80400D8F8BB
:102210000830984200D29060D8F80C0001430020AA
:10222000C4E9000101F07EF9700705D04FF4967201
:1022300004A10EA0FEF784F83046BDE8F08100004E
:10224000B00000202E2E5C4672656552544F535CE0
:10225000706F727461626C655C4D656D4D616E6727
:102260005C686561705F342E630000004572726FB8
:10227000723A25732C25640D0A0000000449086891
:1022800018B10868426D521C42650868704700002A
:102290004C00002010B5031F4FF080741C601B1F02
:1022A00021F001011960191F044B0B6014390A60F9
:1022B000091F6FF0020244380A6010BD6520000853
:1022C000F0B51A4F00263246174D3C8819E0A44558
:1022D00008D0164A121D1CF802200CF1010CCCF398
:1022E00008037B802B880BB95A2A0AD18B4202D271
:1022F000C2545B1C2B809BB2012B02D1A52A00D0BB
:102300002E80B7F802C0A4EB0C0303F500734FEA6C
:10231000E37E03EBDE5E6FF3080EA3EB0E031B04FC
:102320001B0CD4D10020F0BD30000020D4000020D0
:10233000064B10B51A885C88511CC1F308018C4209
:1023400002D01C1D1055198010BD0000D4000020C3
:102350000349002048800880024908807047000037
:10236000D400002030000020704700001CB500F0B1
:10237000CBF802200E49C401CDE90001002322461A
:102380000CA10F4800F074FF09490320091DCDE995
:102390000001002322460BA10D4800F069FF04480C
:1023A0000838406800F02CFABDE81C4000F0E8B89E
:1023B000080000206477696E5F7461736B00000031
:1023C0008718000864656275675F7461736B00004D
:1023D000A5170008F0B50746012187B00846FEF7AB
:1023E00047FF01211020FEF75BFF234E0722092142
:1023F0003046FEF793FE07220A213046FEF78EFE96
:102400004FF4C060049002208DF814008DF8150080
:1024100000248DF8164001258DF8175004A9304688
:10242000FEF740FEADF808400C20144EADF8044015
:10243000ADF80A000097ADF80640ADF80C406946CB
:102440003046FFF753F901213046FFF707F9012223
:1024500040F225513046FFF731F925208DF818005C
:1024600007208DF819008DF81A408DF81B5006A82A
:10247000FEF768FE07B0F0BD00000240001001400A
:10248000D0E9013201699A60D0E901235A604A68B3
:10249000824201D182684A60002202610868401EBF
:1024A0000860704700F108014FF0FF32C0E90112E7
:1024B000C160016100210160704700210161704726
:1024C00030B50C68621C02D000F1080202E002691B
:1024D00004E01A4653681D68A542FAD953684B6058
:1024E00099608A60516008610168491C016030BDD3
:1024F00042684A6093688B60936859609160086194
:102500000168491C01607047502080F31188BFF3B7
:102510004F8FBFF36F8F09494868401C48600128FE
:102520000AD10748006810F0FF0F05D040F2B91239
:1025300004A10FA0FDF704BF70470000A400002015
:1025400004ED00E02E2E5C4672656552544F535CDC
:10255000706F727461626C655C525644535C415298
:102560004D5F434D34465C706F72742E6300000003
:102570004572726F723A25732C25640D0A000000B3
:1025800010B5084C606828B94FF4E07206A111A09C
:10259000FDF7D6FE6068401E606001D180F31188AF
:1025A00010BD0000A40000202E2E5C46726565520E
:1025B000544F535C706F727461626C655C52564428
:1025C000535C41524D5F434D34465C706F72742EC4
:1025D000630000004572726F723A25732C25640DFA
:1025E0000A00000070B500282AD0164DA0F108049A
:1025F0006068E968084205D14FF4A07212A11CA0DE
:10260000FDF79EFE206828B140F241120EA118A0ED
:10261000FDF796FE6068E968084211D02268002A3A
:102620000ED18843606000F061FA60686968084410
:1026300068602046FFF746FBBDE8704000F072BFBF
:1026400070BD0000B00000202E2E5C467265655201
:10265000544F535C706F727461626C655C4D656D54
:102660004D616E675C686561705F342E63000000C9
:102670004572726F723A25732C25640D0A000000B2
:1026800006484FF47A710068B0FBF1F14FF0E0209A
:10269000491E4161072101617047000010000020C0
:1026A00010B5FDF729FE104C10280CD300F1E020E6
:1026B00090F8F0032178884205D24FF440720BA1C4
:1026C00015A0FDF73DFE18480068A16800F4E06021
:1026D000884207D9BDE810404FF4447203A10EA010
:1026E000FDF72EBE10BD0000A40000202E2E5C467B
:1026F00072656552544F535C706F727461626C65A1
:102700005C525644535C41524D5F434D34465C70BD
:102710006F72742E630000004572726F723A2573F7
:102720002C25640D0A0000000CED00E010B5074BED
:10273000002253F832401CB1521C082AF9D310BDB4
:1027400043F8321003EBC201486010BD0C030020B7
:1027500070B515460E460446FFF7D6FE94F94410B0
:102760000020491C01D184F8440094F94510491C0B
:1027700001D184F84500FFF703FFA06B28B92A4672
:10278000314604F1240000F0D1F82046BDE8704045
:10279000FFF7AEBC10B5040012D00E49096B29B189
:1027A00040F2CF420CA111A0FDF7CAFD00F09EF946
:1027B00000212046FFF7A6F800F0B4FE002807D15C
:1027C0000E494FF080500860BFF34F8FBFF36F8FFB
:1027D00010BD00004C0000202E2E5C467265655234
:1027E000544F535C7461736B732E63004572726F48
:1027F000723A25732C25640D0A00000004ED00E0F8
:1028000070B50446FFF780FE234D04B92C68201DE7
:10281000FFF736FE58B9E06A204A00EB800152F813
:10282000211021B901218140286988432861A06ACB
:1028300018B104F11800FFF723FE686A401C6862B3
:102840002868844207D1211D1548FFF751FE6868AA
:10285000401C686007E0A868401EA8602046FFF79B
:102860008CF9FFF7A5FBFFF78BFE6869002812D0F3
:10287000286884420FD1286B28B140F2654209A133
:102880000DA0FDF75DFD10494FF080500860BFF3CB
:102890004F8FBFF36F8F70BD4C0000204C030020A2
:1028A000080600202E2E5C4672656552544F535C1C
:1028B0007461736B732E63004572726F723A257385
:1028C0002C25640D0A00000004ED00E00149012000
:1028D000C86170474C00002070B50D46040005D15A
:1028E00040F6063207A10CA0FDF72AFD0E4801684C
:1028F00020461831FFF7E4FD2846BDE8704001216D
:10290000FFF700B82E2E5C4672656552544F535C3B
:102910007461736B732E63004572726F723A257324
:102920002C25640D0A0000004C00002070B51446F0
:102930000E46050005D140F6313209A10DA0FDF784
:10294000FFFC1048016828461831FFF7D1FD0CB193
:102950004FF0FF3621463046BDE87040FEF7D2BF4B
:102960002E2E5C4672656552544F535C7461736BD6
:10297000732E63004572726F723A25732C25640DB5
:102980000A0000004C00002070B5040039D01D4D35
:10299000E06A2968C96A884233D2A069002804DB4A
:1029A0002868C06AC0F12000A061E06A164E00EB02
:1029B0008000616906EB800081421FD1201DFFF776
:1029C0005FFD012150B9E06A00EB800256F8222039
:1029D00022B92A6901FA00F082432A612868C06A94
:1029E000E0622A6981401143296100EB800006EB17
:1029F0008000211DBDE87040FFF77ABD2868C06ADD
:102A0000E06270BD4C0000204C03002010B50400B3
:102A100005D140F6C13205A109A0FDF791FC0C4893
:102A2000016A2160C068606010BD00002E2E5C4607
:102A300072656552544F535C7461736B732E6300FF
:102A40004572726F723A25732C25640D0A000000DE
:102A50004C0000201CB518480024CDE90040234656
:102A6000822216A1174800F003FC012803D100F0D0
:102A700005FE01280AD0401C1DD102B040F284722C
:102A8000BDE8104010A115A0FDF75ABC502080F3FE
:102A90001188BFF34F8FBFF36F8F07484FF0FF319F
:102AA0002C38816201214161C460FEF793FABDE8D0
:102AB0001C4000F073B81CBD7800002049444C4510
:102AC00000000000DD1B00082E2E5C46726565527A
:102AD000544F535C7461736B732E63004572726F55
:102AE000723A25732C25640D0A0000000248016B20
:102AF000491C0163704700004C00002070B51A4C5F
:102B0000206B10B10120E06170BD0020E061174929
:102B100008684968A063626B904204D92168821AF0
:102B20008B6D1A448A6560632069114EB0FA80F09B
:102B3000C0F11F0000EB800556F8250028B940F6CB
:102B4000F6220CA110A0FDF7FBFB06EB850000F1BF
:102B50000802416849684160914201D14968416079
:102B6000C868206070BD00004C00002028000020D4
:102B70004C0300202E2E5C4672656552544F535C08
:102B80007461736B732E63004572726F723A2573B2
:102B90002C25640D0A000000704770471CB5304CAE
:102BA00020683049884205D140F259122EA139A03F
:102BB000FDF7C6FB20682B49491E884205D14FF41A
:102BC000AD7229A133A0FDF7BBFB364C20780190F4
:102BD000FF20207020788DF800009DF800009DF8FF
:102BE000001000F0F000884205D040F273121EA1E0
:102BF00028A0FDF7A5FB9DF800002B4A00F050002F
:102C000010700720906007E09068401E90609DF86B
:102C1000000040008DF800009DF800000006F3D48D
:102C2000107A000200F4E0609060019820700C4877
:102C30002030016841F470010160016841F0704189
:102C40000160FFF71DFD00205060FDF71DFB1748D8
:102C5000016841F040410160FDF706FB00201CBD0A
:102C600000ED00E071C20F412E2E5C467265655288
:102C7000544F535C706F727461626C655C52564461
:102C8000535C41524D5F434D34465C706F72742EFD
:102C9000630000004572726F723A25732C25640D33
:102CA0000A00000000E400E0A400002034EF00E08F
:102CB00010B5502080F31188BFF34F8FBFF36F8F93
:102CC00000F016FB18B104494FF080500860002056
:102CD00080F3118810BD000004ED00E02DE9F04103
:102CE00017460E46050005D14FF4C47210A115A079
:102CF000FDF726FBBEB105FB06F05430FFF734FAB2
:102D000004000ED004F154007EB12060C4E90F56D7
:102D10002046012100F0E0F884F8507000212046A0
:102D2000A164BDE8F0810020E7E72460EEE7000041
:102D30002E2E5C4672656552544F535C71756575F5
:102D4000652E63004572726F723A25732C25640DEF
:102D50000A0000002DE9FF4F83B09B468A4604001D
:102D60004FF0000605D140F2DC4251A155A0FDF71D
:102D7000E7FABAF1000F07D1206C28B140F2DD422A
:102D80004BA150A0FDF7DCFA00F09EFA38B9059887
:102D900028B14FF49C6246A14AA0FDF7D1FA4FF04A
:102DA00000094FF08057DFF82C81FFF7ADFBA56BD2
:102DB00045B351462046E668FEF796FEBBF1000F8C
:102DC00013D0E660606A50B104F1240000F05EFBAD
:102DD00028B1C8F80070BFF34F8FBFF36F8FFFF7B4
:102DE000CFFB012007B0BDE8F08F6D1EA563206802
:102DF00010B9FFF743FA606020690028EFD004F1B2
:102E00001000E3E7059808B11EB106E0FFF7B8FB34
:102E100027E06846FFF7FAFD0126FFF7B1FBFFF751
:102E200065FEFFF771FB94F94400401C01D184F862
:102E3000449094F94500401C01D184F84590FFF777
:102E40009FFB05A9684600F0CFF9002820460AD06C
:102E5000FFF74EF900F066FB2046FEF775FF0028ED
:102E6000A3D00020BEE7FEF76FFFD8B1206830B9CD
:102E7000FFF74AFB6068FFF787FDFFF781FB04F16E
:102E800024000599FFF728FD2046FFF731F900F0EF
:102E900049FB002889D1C8F80070BFF34F8FBFF3FA
:102EA0006F8F82E72046FFF723F900F03BFB7CE7BA
:102EB0002E2E5C4672656552544F535C7175657574
:102EC000652E63004572726F723A25732C25640D6E
:102ED0000A00000004ED00E070B50D46040005D1C5
:102EE00040F21B121CA121A0FDF72AFAFFF70CFBF0
:102EF000D4E90F20216802FB001161600021A16369
:102F00002168A1600A46D4E90F01401E00FB01219F
:102F1000E16021464FF0FF3001F8440F487004F1A2
:102F200010004DB1FFF7BEFA04F12400FFF7BAFA22
:102F3000FFF726FB012070BD21690029F8D000F0C1
:102F4000A5FA0028F4D00D494FF080500860BFF377
:102F50004F8FBFF36F8FEBE72E2E5C467265655285
:102F6000544F535C71756575652E63004572726FC1
:102F7000723A25732C25640D0A00000004ED00E070
:102F80002DE9FF4F83B099468B4604004FF00006B1
:102F900005D140F2D92252A156A0FDF7D1F9BBF1DB
:102FA000000F07D1206C28B140F2DA224CA151A0C9
:102FB000FDF7C6F9B9F1020F08D1E06B012805D081
:102FC00040F2DB2246A14BA0FDF7BAF900F07CF9F4
:102FD00038B9059828B140F2DE2241A145A0FDF79D
:102FE000AFF94FF0000A4FF08057DFF81881FFF774
:102FF0008BFAA06BE16B884206D3B9F1020F03D0C4
:10300000059800B316B325E04A4659462046FEF718
:103010007EFDA16C21B149462046FEF7A3FE05E0E6
:10302000616A19B104F1240000F030FA28B1C8F83F
:103030000070BFF34F8FBFF36F8FFFF7A1FA01202E
:1030400007B0BDE8F08FFFF79BFA21E06846FFF775
:10305000DDFC0126FFF794FAFFF748FDFFF754FA6D
:1030600094F94400401C01D184F844A094F945002F
:10307000401C01D184F845A0FFF782FA05A96846F3
:1030800000F0B2F830B12046FFF732F800F04AFA0B
:103090000020D5E7FFF738FAA06BE16B884201D139
:1030A000012500E00025FFF76BFA95B104F110004F
:1030B0000599FFF711FC2046FFF71AF800F032FAE5
:1030C000002894D1C8F80070BFF34F8FBFF36F8F03
:1030D0008DE72046FFF70CF800F024FA87E70000A0
:1030E0002E2E5C4672656552544F535C7175657542
:1030F000652E63004572726F723A25732C25640D3C
:103100000A00000004ED00E02DE9F047984615465E
:103110008946040005D140F29F322AA12EA0FDF776
:103120000FF9B9F1000F07D1206C28B14FF4687284
:1031300024A129A0FDF704F9B8F1020F08D1E06B32
:10314000012805D040F2A1321EA123A0FDF7F8F816
:10315000FFF7A6FA5020EFF3118780F31188BFF331
:103160004F8FBFF36F8FA06BE16B884207D3B8F12D
:10317000020F04D0002087F31188BDE8F08794F98E
:103180004560424649462046FEF7C1FC701C04D00B
:10319000761C84F845600120EDE7A06C012620B183
:1031A00041462046FEF7DEFD06E0606A0028F2D0C8
:1031B00004F1240000F06AF90028ECD0002DEAD0D8
:1031C0002E60E8E72E2E5C4672656552544F535CC4
:1031D00071756575652E63004572726F723A25735D
:1031E0002C25640D0A00000070B50D46040005D1C1
:1031F00040F6CB3214A119A0FDF7A2F82DB940F684
:10320000CC3211A115A0FDF79BF8FFF77DF9174A05
:10321000D06829684B1C0FD02368126A934202D0F1
:10322000626882420AD96268801A884206D2081A05
:1032300028602046FFF7EAFB002400E00124FFF7A6
:103240009FF9204670BD00002E2E5C4672656552C7
:10325000544F535C7461736B732E63004572726FCD
:10326000723A25732C25640D0A0000004C000020E2
:103270002DE9FF5F8346DDE90E87994616468A46AB
:103280009000FEF771FF05001AD06420FEF76CFF76
:10329000040012D025630021CDE90241CDE9008769
:1032A0004B46324651465846FEF7ACFC2046FEF7E8
:1032B00061FB012004B0BDE8F09F2846FFF792F9BA
:1032C0004FF0FF30F6E700000548416919B1006B87
:1032D00018B100207047012070470220704700009D
:1032E0004C0000200148C068704700004C000020DE
:1032F0002DE9F0412D4F0026386B40B1B869401CD4
:10330000B861F86900B101263046BDE8F081FD687A
:103310006D1CFD6011D1F86B006828B140F6D91220
:1033200023A128A0FDF70CF8F86B396CF963386419
:10333000386A401C3862FEF73BFEB86ADFF89480BA
:10334000854209D3F86B006880B1F86BC068C46827
:10335000606885420DD2B8623868C06A00EB8001AF
:1033600058F821000128CCD90126CAE74FF0FF30D8
:10337000F1E7201DFFF784F8A06A18B104F11800E6
:10338000FFF77EF8E06A01213A6981401143396113
:1033900000EB800108EB8100211DFFF7A9F8E06A2E
:1033A0003968C96A8842CDD30126CBE74C0000209A
:1033B0002E2E5C4672656552544F535C7461736B7C
:1033C000732E63004572726F723A25732C25640D5B
:1033D0000A0000004C03002070B504004FF0000606
:1033E0003CD01F4D2868844205D040F6C7621DA11D
:1033F00021A0FCF7A5FF606D28B940F6C96219A1AC
:103400001DA0FCF79DFF606D401E6065226DE16AA6
:10341000914223D010BB201DFFF732F81A49012238
:1034200050B9E06A00EB800351F8233023B92B69CF
:1034300002FA00F083432B61206DE062C0F12000AE
:10344000A061E06A2B6982401A432A6100EB800088
:1034500001EB8000211DFFF74BF80126304670BDBF
:103460004C0000202E2E5C4672656552544F535C12
:103470007461736B732E63004572726F723A2573B9
:103480002C25640D0A0000004C0300202DE9F041BA
:10349000C068C4682CB940F6613216A11AA0FCF7C6
:1034A0004FFF04F118000746FEF7EAFF1A4D286B9C
:1034B000012660B139461948FFF71AF8E06A296811
:1034C000C96A884213D90120EE61BDE8F081201D50
:1034D000FEF7D6FFE06A2A6906FA00F11143296176
:1034E0000F4900EB800001EB8000211DE4E7002084
:1034F000EBE700002E2E5C4672656552544F535C1C
:103500007461736B732E63004572726F723A257328
:103510002C25640D0A0000004C000020F40500205A
:103520004C0300202DE9F0472B4D00242746286B43
:1035300028B94FF4FD6229A12DA0FCF701FFFEF789
:10354000E3FF286B401E2863286BE8BBA8682C4962
:103550000126C8B3A1F52A798846D8F80010E9B148
:10356000D8F80C00C46804F11800FEF789FF201D8C
:10357000FEF786FFE06A2A6906FA00F11143296125
:1035800000EB800109EB8100211DFEF7B1FFE06A2D
:103590002968C96A8842E0D3EE61DEE70CB1FEF724
:1035A00007FDAC693CB1FFF7A3FE00B1EE61641EFC
:1035B000F9D10020A861E86930B112490127380724
:1035C0000860BFF34F8F00E001E0BFF36F8FFEF79D
:1035D000D7FF3846BDE8F0874C0000202E2E5C4611
:1035E00072656552544F535C7461736B732E630044
:1035F0004572726F723A25732C25640D0A00000023
:10360000F405002004ED00E02DE9F0470746994657
:1036100016460D462C20DDF820A0FEF7A5FD04007F
:1036200014D0B8464F46D1462DB94FF4C67209A101
:103630000EA0FCF785FEFEF705FA04F11801C4F8A8
:10364000008081E8E002201DFEF737FF2046BDE83C
:10365000F08700002E2E5C4672656552544F535C15
:1036600074696D6572732E63000000004572726F9D
:10367000723A25732C25640D0A0000001CB5002445
:10368000FEF7E0F90C48006868B10B491F20091DDE
:10369000CDE9000100234FF4827208A10948FFF729
:1036A000E7FD040005D140F2331207A10CA0FCF79E
:1036B00047FE20461CBD000090000020546D722083
:1036C00053766300C92000082E2E5C467265655251
:1036D000544F535C74696D6572732E630000000073
:1036E0004572726F723A25732C25640D0A00000032
:1036F0002DE9FF47DDF830A0994690460D460600BB
:103700004FF0000705D14FF4D37212A117A0FCF7B8
:1037100017FE1A4C206880B1CDE900580296062D9C
:1037200011DAFFF7D1FD02284FF0000309D0002283
:1037300069462068FFF724FC074604B03846BDE818
:10374000F0875246F4E700234A466946FFF7DCFC5F
:10375000F2E700002E2E5C4672656552544F535CB2
:1037600074696D6572732E63000000004572726F9C
:10377000723A25732C25640D0A0000009000002089
:103780004FF04070E1EE100A70473A7474003A74DA
:1037900074003A7474000000B8370008000000207C
:1037A000D4000000C40100088C380008D4000020B8
:1037B000E45C0000E00100080000000000000000E0
:1037C0000000000000000000007A030A0000000072
:1037D00000000000010203040607080900000000C1
:1037E00000000000000000000000000000000000D9
:1037F00000000000000001020304010203040607A8
:1038000008090000000000000000000000000000A7
:1038100000000000000000000000000000000000A8
:103820000000000000000000000000000000000098
:103830000000000000000000000000000000000088
:103840000000000000000000000000000000000078
:103850000000000000000000000000000000000068
:10386000AAAAAAAA000000000000000000000000B0
:103870000000000000000000000000000000000048
:0C3880000000000000000000000000003C
:040000050800018965
:00000001FF
